:02000004080AE8
:1000000000000A08EC170A080000060006000501B7
:080010000402FD0800000000DD
:04001800B4150A0809
:10001C0009480A4908B5884205D0094A824202D0EB
:10002C00121A01F0FAF90748074A0021121A01F0D6
:10003C0002FA064808BD00BF0000002054170A0849
:10004C007000002070000020E5050020E505002070
:10005C0070B500F093FB0025054E064CA41BA408BC
:10006C00A54200D170BD56F8043B98470135F7E71F
:10007C0024170A0844170A0800F016B808B500F04F
:10008C001BF8BDE8084000F031BB00F003BA00F0EB
:10009C0001BA00F007BA0078B0FA80F04009704756
:1000AC000123037070470000024B0021188801F0F7
:1000BC0037B900BF0000002030B51D4B85B0188843
:1000CC0001F03FF9044600F0F3FE002C05462CDA53
:1000DC002D2100F04FFA61420A22284600F059FA0D
:1000EC00284600F04AFA134B00221B7812498DF86F
:1000FC00003002A83C2300F099FC039C7CB163689F
:10010C00013B63605BB9236820469B689847A368F2
:10011C00013BA3601BB923682046DB6898474FF46A
:10012C00FA6000F089FA05B030BD2146D4E700BF73
:10013C000000002070000020C8150A080122014BA5
:10014C001A7070477000002008B5024B1B689B6842
:10015C00019308BDB001060808B5024B1B68DB68AB
:10016C00019308BDB001060808B5024B1B685B691A
:10017C00019308BDB001060808B5024B1B685B680B
:10018C00019308BD9C01060808B5024B1B685B690E
:10019C00019308BD9C01060808B5024B1B685B6CFB
:1001AC00019308BDD001060808B5024B1B689B6C77
:1001BC00019308BDD001060808B5024B1B689B696A
:1001CC00019308BDC401060808B5024B1B685B6AA5
:1001DC00019308BDC401060808B5024B1B689B6A55
:1001EC00019308BDC401060808B5024B1B68DB6A05
:1001FC00019308BDC401060808B5024B1B681B6BB4
:10020C00019308BDC401060808B5024B1B685B6B63
:10021C00019308BDC401060808B5024B1B689B6B13
:10022C00019308BDC401060808B5024B1B681B6C82
:10023C00019308BDC401060808B5024B1B681B6E70
:10024C00019308BDAC01060808B5024B1B685B6E38
:10025C00019308BDAC01060808B5024B1B689B6EE8
:10026C00019308BDAC01060808B5024B1B68DB6E98
:10027C00019308BDAC01060808B5024B1B681B6F47
:10028C00019308BDAC01060808B5024B1B685B6FF7
:10029C00019308BDAC01060808B5034B1B68D3F8E5
:1002AC008030019308BD0000AC01060808B5024B74
:1002BC001B68DB69019308BDB401060808B5024B45
:1002CC001B681B6A019308BDB401060808B5024BF4
:1002DC001B681B68019308BDD801060808B5024BC2
:1002EC001B681B69019308BDD801060808B5024BB1
:1002FC001B685B69019308BDD801060808B5024B61
:10030C001B689B69019308BDD801060808B5024B10
:10031C001B68DB69019308BDD801060808B5024BC0
:10032C001B681B6A019308BDD801060808B5024B6F
:10033C001B689B6C019308BDC001060808B5024BF5
:10034C001B685B68019308BDA401060808B5024B45
:10035C001B685B69019308BDA401060808B5024B34
:10036C001B68DB6C019308BDA401060808B5024BA1
:10037C001B685B6D019308BDA401060808B5034B0F
:10038C001B68D3F89030019308BD0000A401060847
:10039C0008B5034B1B68D3F89C30019308BD0000D3
:1003AC00A401060808B5024B1B685B68019308BDE5
:1003BC00C801060808B5024B1B689B68019308BD71
:1003CC00C801060808B5024B1B68DB68019308BD21
:1003DC00C801060808B5024B1B681B69019308BDD0
:1003EC00C801060808B5024B1B685B69019308BD80
:1003FC00C801060808B5024B1B689B69019308BD30
:10040C00C801060808B5024B1B68DB69019308BDDF
:10041C00C801060808B5024B1B681B6A019308BD8E
:10042C00C801060808B5024B1B681B6B019308BD7D
:10043C00C801060808B5024B1B685B6B019308BD2D
:10044C00C801060808B5024B1B681B6C019308BD5C
:10045C00C801060808B5024B1B685B6C019308BD0C
:10046C00C801060808B5024B1B685B69019308BDFF
:10047C00CC01060808B5024B1B681B6A019308BD2A
:10048C00CC01060808B5024B1B68DB6B019308BD59
:10049C00CC01060808B5024B1B681B68019308BD0C
:1004AC00A001060808B5024B1B685B68019308BDE8
:1004BC00A001060808B5024B1B68DB6A019308BD56
:1004CC00A001060808B5024B1B681B6B019308BD05
:1004DC00A001060808B5024B1B685B6C019308BDB4
:1004EC00A001060870B5002604460D4640F8086FBA
:1004FC00FFF752FE28462570FFF7D8FE20466660AF
:10050C0070BD000002220020044B1A60044B054A07
:10051C001860988098719A60FFF710BF80000020D7
:10052C00740000200000FFFFF8B506460D460024BD
:10053C008F18BD420CD0336830469B6815F8011BF0
:10054C009847031E01DB1C44F3E7002C08BF1C4634
:10055C002046F8BD70B505460C46084649B100F07A
:10056C00B2FF2B68024621462846BDE87040DB6886
:10057C00184770BD03689B68184738B50D210546B0
:10058C00FFF7F8FF0A2104462846FFF7F3FF204443
:10059C0038BD0023012A98BF0A2230B58BB00C4617
:1005AC008DF8243009A92546B4FBF2F404FB125350
:1005BC00DBB2092B94BF30333733DBB2AA4201F8DC
:1005CC00013DF0D9FFF7C6FF0BB030BD00234068EA
:1005DC001A461946FFF706BF38B5046805467CB1C4
:1005EC006368013B63605BB9236820469B6898474E
:1005FC00A368013BA3601BB923682046DB689847BE
:10060C00284638BD0B68036013B15A6801325A6032
:10061C0070470000014B024A1A60704784000020AA
:10062C00CD150A08024B1A68024B1A60704700BFBE
:10063C0004000020880000200021FFF787BE10B5C1
:10064C008368044613B1032201469847204610BD27
:10065C0013B56C460B46024603C884E8030093E8C6
:10066C00030082E8030094E8030083E8030002B06F
:10067C0010BD00000022014B9A6070478C000020D6
:10068C00014B1860704700BF0800002008B5134BE1
:10069C0043B100F00DFC03681B699847002801DD8D
:1006AC00AFF300800E4B43B100F0B2FC03681B6942
:1006BC009847002801DDAFF300800A4B0BB1AFF374
:1006CC000080094B43B100F02DFC03681B6998476F
:1006DC00002801DDAFF3008008BD00BF0000000062
:1006EC0000000000000000000000000008B5FFF74B
:1006FC00CDFFFFF749FD014B186008BD1805002020
:10070C000548064A08B5121A054900F086FE054B45
:10071C00054A1A6008BD00BF004002400440024078
:10072C0050170A08004002401E1C279A002307B5E8
:10073C001A466FF077010093FFF72AFE03B05DF8BD
:10074C0004FB000007B543880A2B08D0502B0BD1B3
:10075C00094B1B684BB103B05DF804EB1847FFF76E
:10076C00E5FF03B05DF804FB00231A466FF0770138
:10077C000093FFF70DFEF4E7A0000020002110B558
:10078C001148FFF7A7FE114B1A68114B9A420CBF88
:10079C00012200220F4B1A7001D0FFF7B1FFFFF7B7
:1007AC00EBFC044600F050FE0B4B13B12046AFF3AC
:1007BC00008000210848FFF765FEBDE810400021CD
:1007CC000648FFF7DBBD00BF8D060A08004002405B
:1007DC001E1C279A9C0000200000000051070A08EC
:1007EC0070470020704710B50446102100F008FE39
:1007FC00204610BD08B5FFF7F6FF08BD002230B546
:10080C004FF69C74026084808D888C800C68858087
:10081C0004600A6030BD10B504460068FFF742FE64
:10082C00204610BD38B5C468F4B12378022B03D12F
:10083C0004F10C00FFF7EFFF656835B12846FFF7B0
:10084C00FEFE1021284600F0DBFDA56835B12846D8
:10085C00FFF7F5FE1021284600F0D2FD2046BDE83A
:10086C003840142100F0CCBD38BD73B50E4604469B
:10087C0056F8043B0D4601A831460093FFF7C2FE23
:10088C00009B019A23600023626001A801930093EE
:10089C00FFF7A2FE3046FFF79FFE2846082100F026
:1008AC00AFFD204602B070BD826810B50AB900F0E9
:1008BC00ABFDC368BDE81040184708B5006800F1EF
:1008CC001001FFF7F1FF08BD826810B50AB900F0FE
:1008DC009BFDC368BDE81040184708B5006800F1DF
:1008EC001001FFF7F1FF08BD38B500230446036083
:1008FC0010200D46FFF7C9FB28B10123C0E90133D5
:10090C00024BC56003602060204638BDF8150A080C
:10091C0038B5002383608B6804460D462BB1022248
:10092C009847EB68E360AB68A360204638BD0000D5
:10093C00F0B589B004686846FFF760FF4FF002031A
:10094C00D4E84F2F002A03D1C4E8413F0029F7D146
:10095C0025D104F10C0569462846FFF74FFF01230A
:10096C00BFF35B8F63700020BFF35B8F04F1080350
:10097C0053E8006F43E80002002AF9D1BFF35B8F04
:10098C006EB1FFF7EBFC78B129463046FFF78CFFD0
:10099C003046FFF754FE1021304600F031FD68461A
:1009AC00FFF739FF09B0F0BD314602A8FFF7B0FFE1
:1009BC00E068B4F9105008B100F06AFD0690102000
:1009CC00ADF81C50FFF761FB0546E8B100278760C6
:1009DC001820FFF75AFB044688B10146876002A82D
:1009EC00FFF736FE049BA268A360059B0492E268A5
:1009FC0006A9E36004F110000592FFF7FFFE084B17
:100A0C002C60EB60074BAB6006A8FFF704FF02A855
:100A1C00FFF715FE002229460348FFF7A7FCB7E7AE
:100A2C00C7080A085D0B0A0865100A082DE9F0478B
:100A3C008AB005460C46174698469DF84890FFF735
:100A4C0011FD07AE824638BB4FF62E73059005A9F3
:100A5C003046ADF81830FFF7D1FE1420FFF715FB28
:100A6C00044648B1022303700123C0E901AA437074
:100A7C0031460C30FFF7C2FE2846214640F8044BA5
:100A8C00FFF732FF3046FFF7C6FE05A8FFF7C3FE9F
:100A9C0028460AB0BDE8F0870C234FF0000A14205A
:100AAC00CDE908AA0793FFF7F0FA014628B1C0E98F
:100ABC0001AA80F800A080F801A004A80391FFF718
:100ACC0013FF224B08200893FFF7DFFA824628B168
:100ADC00039B04A940F8043BFFF794FD42463946BA
:100AEC00204600965FFA89F3CDF824A0FFF7C2FCEC
:100AFC00B8B9039B5B7803F0FF0293B94FF69C7374
:100B0C0005A903A80592ADF81830FFF711FF05A849
:100B1C00FFF781FE05A80999FFF7A7FE06A8FFF7C6
:100B2C005BFD039B04A906A80593FFF76BFD059BD2
:100B3C00069A2B6000236A6006A806930593FFF7BC
:100B4C004BFD04A8FFF748FDA2E700BF210C0A08E3
:100B5C00022AF8B5054607D0032A18D0012A01D17C
:100B6C000B6803600020F8BD18200E68FFF78DFAA3
:100B7C00044650B13146FFF7CBFE3069B6F914701C
:100B8C0008B100F085FC2061A7822C60EAE70468BC
:100B9C00002CE7D004F11000FFF73DFE2046FFF7D4
:100BAC004EFD1821204600F02BFCDBE738B5002366
:100BBC0083608B6804460D462BB102229847EB6884
:100BCC00E360AB68A360204638BD022A70B50446CA
:100BDC0007D0032A12D0012A01D10B680360002030
:100BEC0070BD14200E68FFF750FA054620B131464F
:100BFC00FFF7DCFF337C2B742560F0E70468002CD6
:100C0C00EDD02046FFF71BFD1421204600F0F8FB29
:100C1C00E5E70000F0B5044689B00D4601A8114681
:100C2C00FFF723FEA4B124B21DB1284600F030FC1E
:100C3C00054601A803A90395ADF81040FFF778FE0F
:100C4C0003A8FFF7E8FD02A8FFF7C6FC09B0F0BD4A
:100C5C000123019DD5E84F2F002A03D1C5E8413F60
:100C6C000029F7D1EFD12B73BFF35B8F6B70BFF300
:100C7C005B8F2B1D53E8006F43E80042002AF9D12B
:100C8C00BFF35B8F002EDED02046FFF767FB0746D5
:100C9C0060B1304605F10C01FFF716FE3046FFF748
:100CAC00CEFC1021304600F0ABFBCCE7314603A85C
:100CBC00FFF77CFF2B7B10208DF81C30FFF7E5F93C
:100CCC000546D0B187601420FFF7DFF9044678B1F0
:100CDC000146876003A8FFF7BBFC059BA268A360D5
:100CEC00069B0592E268E3609DF81C300692237423
:100CFC00064B2C60EB60064BAB6003A8FFF79FFC28
:100D0C00002229460348FFF731FBC7E7E7080A082A
:100D1C00D70B0A0865100A08704710B5044618214D
:100D2C0000F06EFB204610BDF8B50E46002400F115
:100D3C000807051D17F8011D0A223046FFF729FC8C
:100D4C00AF42044401D12046F8BD002CF2D02E2134
:100D5C003046FFF70FFC0444ECE7000010B50446E6
:100D6C00044B1122002140F8043B00F064FB2046A8
:100D7C0010BD00BF14160A080346074A10B543F805
:100D8C00042B01F1100251F8044B914243F8044B2F
:100D9C00F9D10A781A7010BD14160A08024AC0E973
:100DAC00002104220275704714160A0810B59DF82C
:100DBC00084044EA0324042344EA024444EA01645C
:100DCC004460037510BD000037B5044D05609DF8F7
:100DDC0018500095FFF7EAFF03B030BD14160A084F
:100DEC00417470477047704708B50021007CFFF7CD
:100DFC0085FA40EAE07008BD08B50121007CFFF7D8
:100E0C007DFA40EAE07008BD08B5007CFFF76EFA89
:100E1C0020EAE07008BD08B5007CFFF75FFA20EA15
:100E2C00E07008BD38B50446007C0D46FFF75EFA4D
:100E3C00002801DC607C28B12946207CFFF766FA8B
:100E4C0020EAE07038BD007CFFF768BA10B50446A4
:100E5C00142100F0D5FA204610BD704710B54FF4A0
:100E6C007A73044608460021C4E90113044B20742C
:100E7C002360012311466374FFF728FA204610BD46
:100E8C0028160A0810B504461422002100F0D3FAE3
:100E9C00054B20466360054BE36040F20113238150
:100EAC008123238210BD00BFD4000020D501002077
:100EBC0030B50E4D87B001A8FFF7E4FF2978BFF3DA
:100ECC005B8F11F001040ED12846FFF7E4F850B106
:100EDC00214601AA0648FFF7C1FF2846FFF7E0F8B4
:100EEC00044800F094FA024807B030BDA40000207A
:100EFC00AC000020F10D0A0810B5044614220021A4
:100F0C0000F099FA054B20466360054BE36040F214
:100F1C00011323818123238210BD00BF56020020C0
:100F2C005703002010B50E4C86B001A8FFF7E4FF64
:100F3C002378BFF35B8FDB070ED42046FFF7ABF8AB
:100F4C0050B1012101AA0748FFF788FF2046FFF79F
:100F5C00A7F8054800F05BFA024806B010BD00BFC8
:100F6C00A8000020C0000020670E0A0870474174DA
:100F7C007047704708B5007CFFF756F920EAE0701F
:100F8C0008BD08B5007CFFF727F920EAE07008BD22
:100F9C0008B5007CFFF730F940EAE07008BD08B5F1
:100FAC00007CFFF721F940EAE07008BD007CFFF7F8
:100FBC002BB970B5467C04460D462EB12946207CD3
:100FCC00BDE87040FFF700B9007CFFF72DF9002851
:100FDC00F4DC304670BD10B50446142100F010FA54
:100FEC00204610BD4FF0000C10B5044608461146C3
:100FFC004FF47A72C4E901C2044A207422600122BF
:10100C0062741A46FFF7D8F8204610BD58160A0825
:10101C0038B50C4D2978BFF35B8F11F001040FD15B
:10102C002846FFF738F858B12146074B074A0848BD
:10103C00FFF7D8FF2846FFF733F8064800F0E7F92A
:10104C00034838BDD803002060040020DC030020D6
:10105C00E40400207F0F0A0810B5836804460BB91E
:10106C0000F0D2F9C3689847A3681BB1032221464C
:10107C00204698472046BDE81040102100F0C0B92A
:10108C007047F8B5064615460C468F18BC4206D07C
:10109C00336830469B6814F8011B9847F6E72846DE
:1010AC00F8BD0022007CFFF7C7B80021007CFFF7D9
:1010BC00CBB80021007CFFF7CFB80021007CFFF7F4
:1010CC00D3B80021007CFFF7D7B810B50446142123
:1010DC0000F096F9204610BD10B54FF47A73044613
:1010EC0008460021C4E90113034B11462360207408
:1010FC00FFF7D2F8204610BD88160A080022406877
:10110C001146FFF767B9F0B5154689B011220E46A6
:10111C000446002103A800F08EF9284600F0D3F90C
:10112C00002781B273682846009703AAFFF7FEF8E0
:10113C0030B139462046FFF731FE204609B0F0BDEC
:10114C00204603A9FFF718FEF7E700224068114676
:10115C00FFF760B9002240681146FFF76BB9002217
:10116C004068FFF75FB90022406881F00101FFF78A
:10117C0049B9002340681A461946FFF73BB90022CB
:10118C0040681146FFF716B9002202214068FFF7AC
:10119C0019B9002340681A46FFF704B90422024B20
:1011AC005A60024A1A607047F8040020B0160A0808
:1011BC00002340681A46FFF7F5B800220221406868
:1011CC00FFF700B9002240681146FFF7F3B8002280
:1011DC0040681146FFF7FEB8002340681A461946CE
:1011EC00FFF700B9002340681A461946FFF702B909
:1011FC0000214068FFF726B900214068FFF72AB9A3
:10120C000022406881F00101FFF7FCB80022406821
:10121C00FFF708B9002240681146FFF70BB900220E
:10122C0040681146FFF7F6B870B515468EB0044607
:10123C0008A8FFF793FD1122002103A800F0FBF88A
:10124C000026284600F03FF90A4B009681B25B68F5
:10125C00284603AAFFF76AF830B131462046FFF75B
:10126C009DFD20460EB070BD204603A9FFF784FDFE
:10127C00F7E700BFF8040020024B034A1A60002273
:10128C005A60704700050020EC160A08024B98685B
:10129C0008B1FEF789BF70470C050020172870B500
:1012AC00044601D9002070BDA0F10D03022B0BD90F
:1012BC00012824D800F080F80021007CFEF7E4FF20
:1012CC0080F00100C0B2EEE7124E3178BFF35B8FB5
:1012DC0011F001050DD13046FEF7DDFE48B129466F
:1012EC000D48FFF7FFF83046FEF7DAFE0B4800F02A
:1012FC008EF8094B1878FEF7E1FF0028D2D1123C8A
:10130C00012C05D8FFF784FE007CFEF785FFD7E79C
:10131C000120C8E7080500200C05002099120A08D6
:10132C00172838B504460D460AD8FF2908D0FFF710
:10133C00B5FF28B129462046BDE83840FEF704BF6A
:10134C0038BD10B50446FEF707FF031FDBB2012BB7
:10135C0008D92046FFF7A2FF20B12046BDE8104077
:10136C00FEF702BF002010BD002307B51A46194630
:10137C0000930348FFF728FD03B05DF804FB00BFA2
:10138C001C05002070470000002370B52025438009
:10139C001423084E044603803146856005612846B7
:1013AC0000F030F831466060284600F02BF8E06021
:1013BC00204670BD20170A0830B50E4D87B029782D
:1013CC00BFF35B8F11F0010411D12846FEF763FEC9
:1013DC0068B101A8FFF7D8FF214601AA0648FFF71C
:1013EC007BFE2846FEF75CFE044800F010F802482D
:1013FC0007B030BD340500203805002091130A08D1
:10140C00FEF747BEFEF743BE08B5FFF753F80023BF
:10141C0001461A46184600F05FB80A44914200F1A2
:10142C00FF3300D1704710B511F8014B914203F80E
:10143C00014FF9D110BD03460244934200D17047CD
:10144C0003F8011BF9E7000038B50D4B04461D6885
:10145C00AB6B7BB91820FFF71DF80A4A0A4BA8633F
:10146C00C0E90023094B012283600B2383810023F5
:10147C00C0E904230022AB6B1C615A6138BD00BF6C
:10148C00080000200E33CDAB34126DE6ECDE050007
:10149C00024B0146186800F003B800BF080000209A
:1014AC0070B5044608460D4600F00DF8461C314652
:1014BC002046FFF707F8044618B132462946FFF7D5
:1014CC00ACFF204670BD034613F8012B002AFBD15C
:1014DC00181A0138704700002DE9F843DFF8BC807A
:1014EC000646D8F800001F460D46914600F058F805
:1014FC00264B1C6834B9264C1C60264B13B11B6858
:10150C00C4F8883063681F2B07DDD8F8000000F0A2
:10151C0049F84FF0FF30BDE8F8835EB3D4F888008B
:10152C0088B91D4B23B9D8F8000000F03AF8F0E761
:10153C004FF48470FEF7AEFF0028F4D00023C0E90E
:10154C004033C4F8880001226368022E40F82390CF
:10155C0002FA03F200EB8301D0F8003143EA0203F4
:10156C00C0F80031C1F8807002BFD0F804311A43C2
:10157C00C0F804216368D8F800005A1C023362607A
:10158C0044F8235000F00EF80020C4E7D8050020E2
:10159C004C05002000000000A1040A086C0000208B
:1015AC0070477047704700001D000A085D000A086C
:1015BC0085000A0889000A08000000006461746153
:1015CC00006170700025592D256D2D25645425481A
:1015DC003A254D3A2553257A0061736374696D651C
:1015EC00000000000000000000000000ED070A08E9
:1015FC00F3070A0831080A0801080A08EF070A0865
:10160C000000000000000000350D0A08250D0A0836
:10161C00270D0A080000000000000000F30D0A0866
:10162C00590E0A08310E0A0835050A08230E0A0855
:10163C00F50D0A08050E0A08530E0A08150E0A08BD
:10164C00ED0D0A080000000000000000790F0A08E8
:10165C00E30F0A08BF0F0A0835050A088F0F0A089E
:10166C00AB0F0A089D0F0A08B90F0A087B0F0A086E
:10167C00810F0A0800000000000000008D100A080D
:10168C00D7100A08AF100A088F100A08B7100A08FA
:10169C00BF100A08C7100A08CF100A080000000083
:1016AC00000000009F110A0895110A088B110A0806
:1016BC0009110A08D9050A087F110A08FD110A0840
:1016CC0005120A0873110A086B110A0861110A083D
:1016DC0057110A0813110A0800000000000000004E
:1016EC00BD110A08C7110A08D1110A08DB110A0832
:1016FC00E5110A08F1110A08FD110A0805120A0879
:10170C000D120A0819120A0821120A082B120A08CB
:10171C0035120A080000000049010A0811050A08E0
:10172C0021060A0831060A0881060A08A9110A08C6
:10173C0085120A0875130A0800000000000000005A
:04174C000000000099
:041750000000000095
:1017540006000000E5150A080C0000200000000047
:101764000000000000000000000000000000000075
:101774000000000000000000000000000000000065
:101784000000000000000000000000000000000055
:101794000000000000000000000000000000000045
:1017A4000000000000000000000000000000000035
:1017B400000000000000000000000000DD05002023
:1017C400FFFFFFFF00000102030405060708090AE2
:1017D4000B0C0D0E0F101112131415161718191ADD
:0817E4001B1C1D1E1F20280024
:0417EC0078563412E5
:04000005080A001CC9
:00000001FF
