:02000002D0002C
:1040000000400D00046C0D00000006000C000501CE
:084010000401FD08000000009E
:0440180034690D00FA
:10401C0009480A49884208B505D0094A824202D0AB
:10402C00121A02F0BBFB0748074A0021121A02F0D1
:10403C00C3FB014808BD00BF18E503206C6B0D00E5
:10404C0088E5032088E50320EDE7032070B5074ED3
:10405C00074C00F07BFFA41BA4080025A54200D14F
:10406C0070BD56F8043B98470135F7E7306B0D00EF
:10407C00546B0D0000F016B808B500F03FF8BDE821
:10408C00084000F01BBF00F0B7BC00F0B5BC00F05E
:10409C00BBBC0078B0FA80F0400970470123037074
:1040AC007047000008B5074B0021188801F00AFD85
:1040BC0001F0E6FA044900F080FEBDE80840034830
:1040CC0000F0F2B818E5032048690D008CE50320D8
:1040DC0038B5046805467CB16368013B63605BB925
:1040EC00236820469B689847A368013BA3601BB9D3
:1040FC0023682046DB689847284638BD10B52DED5F
:10410C00028B47F2305088B000F092FE384800F035
:10411C00ADFA3748F0EE408A00F096FAF4EE688A71
:10412C00F1EE10FAB0EE408A04D6B4EE400AF1EE8D
:10413C0010FA3AD72F4C304923788DF800300022F2
:10414C003C2304A801F05AF805A8FFF7C1FFB0EE14
:10415C00680A062104A800F0D0FD2378049A2749A8
:10416C008DF8003002A83C2301F048F803A8FFF7B3
:10417C00AFFF04A800F064FD0621B0EE480A04A8C5
:10418C0000F0BBFD2378049A1D498DF800303C23C8
:10419C0002A801F033F803A8FFF79AFF04A800F077
:1041AC004FFD08B0BDEC028B10BD164CB0EE680A8A
:1041BC00062104A800F0A1FD2378049A12498DF879
:1041CC00003002A83C2301F019F803A8FFF780FF88
:1041DC0004A800F035FD0621B0EE480A04A800F052
:1041EC008CFD23788DF80030049A08493C23CFE7E6
:1041FC008CE5032088E5032057690D0079690D00D3
:10420C0083690D0089E503208E690D0098690D0006
:10421C00054B064800221A70054B01221A70054BFB
:10422C000622197800F03BB888E503208CE50320C2
:10423C0089E5032018E5032010B503682F2B0446ED
:10424C0004D9074A00210A2000F022FB23681F2B07
:10425C0083BF03F01F03034823604FF0A04010BD41
:10426C00ED460D000003005007B5019001A8FFF7C3
:10427C00E3FF019A01239340C0F8083503B05DF8C1
:10428C0004FB07B5019001A8FFF7D6FF019BD0F8FE
:10429C001005D84000F0010003B05DF804FB027279
:1042AC0001228171027470472DE9F04105461E4CC4
:1042BC008079DFF87880002101F004FCAE79237856
:1042CC00BFF35B8F13F0010F0AD12046FFF7E1FE1D
:1042DC0030B100F0DDF9C8F800002046FFF7DEFE33
:1042EC00D8F8003036019F5D2378BFF35B8FDB0776
:1042FC004FEA47170AD40C48FFF7CBFE30B100F059
:10430C00C7F9C8F800000848FFF7C8FED8F8003015
:10431C0033445B7803F01F0343EA0700FFF7A4FF65
:10432C000023EB60BDE8F081A0E50320A4E50320A9
:10433C002DE9F04F044685B000F0DAF9E3688342CA
:10434C0084BF0023E360237C2BB9E368C01AB0F56B
:10435C00FA6FC0F060810025257400F0C9F9B04EE9
:10436C0025602571E060A7793378AE4DBFF35B8F84
:10437C0013F0010F09D13046FFF78BFE28B100F086
:10438C0087F928603046FFF789FE2B683F0113F848
:10439C0007803378BFF35B8FD9074FEA481809D4ED
:1043AC009F48FFF776FE28B100F072F928609C4810
:1043BC00FFF774FE2B681F44787800F01F0040EA6A
:1043CC000800FFF751FFFA2000F032FDA07901211F
:1043DC0001F078FBA7793378BFF35B8FDA0709D448
:1043EC008F48FFF756FE28B100F052F928608C4830
:1043FC00FFF754FE2B683F01DB5D4FEA431833781F
:10440C00BFF35B8FDB0709D48548FFF742FE28B169
:10441C0000F03EF928608248FFF740FE2B681F44ED
:10442C0003A87B7803F01F0343EA08030393FFF709
:10443C0003FF039A01239340C0F80C35142000F0BD
:10444C00F7FC01F043F9A7793378BFF35B8FD807FA
:10445C0009D47348FFF71DFE28B100F019F9286044
:10446C006F48FFF71BFE2B683F0113F8078033786A
:10447C00BFF35B8FD9074FEA481809D46848FFF798
:10448C0008FE28B100F004F928606548FFF706FE25
:10449C002B681F44787800F01F0040EA0800FFF7F3
:1044AC00E3FE282000F01CF9A079DFF874810021CC
:1044BC0001F008FB00270123BA4600934FF00009D6
:1044CC0094F806B03378BFF35B8FDA0709D4404613
:1044DC00FFF7DFFD28B100F0DBF828604046FFF75E
:1044EC00DDFD2B684FEA0B1B13F80B305B010193BE
:1044FC003378BFF35B8FDB0709D44046FFF7C9FD68
:10450C0028B100F0C5F828604046FFF7C7FD2B68BE
:10451C005B4493F801B0019B0BF01F0B4BEA030BB0
:10452C005846FFF7AEFE5846FFF7ABFE009B8342A2
:10453C0009D109F101095FFA89F9012000F0D0F8DD
:10454C00B9F1FF0FBCD194F806B03378BFF35B8F91
:10455C00D80709D44046FFF79CFD28B100F098F825
:10456C0028604046FFF79AFD2B684FEA0B1B13F8A7
:10457C000B305B0100933378BFF35B8FD90709D401
:10458C004046FFF786FD28B100F082F828604046CF
:10459C00FFF784FD2B685B4493F801B0009B0BF094
:1045AC001F0B4BEA030B5846FFF76BFE5846FFF701
:1045BC0068FEB9F1FF0FC3B2009318D0032F11D9C5
:1045CC00FA070FD44FEADA020AF1010AA35C5B0086
:1045DC00DBB2A354217A49453CBF43F00103A354F9
:1045EC005FFA8AFA0137FFB2552F7FF467AF01F0FB
:1045FC006FF8BAF1270F10D9637820781844A37894
:10460C001844E37818442379C0B2C31A584258416D
:10461C0005B0BDE8F08F0120FAE70020F8E700BFF5
:10462C00A0E50320A4E5032010B50446FFF780FEA7
:10463C0028B1A37800EE103AB8EE400A10BD9FEDF9
:10464C00010AFBE70000C07FFFF7EEBF10B5044680
:10465C00FFF76EFE28B1237800EE103AB8EE400A50
:10466C0010BD9FED010AFBE70000C07FFFF7EEBF16
:10467C0008B5024B1B689B68019308BD68020300D8
:10468C0008B5024B1B68DB68019308BD6802030088
:10469C0008B5024B1B681B68019308BD2C02030074
:1046AC0008B5024B1B689B68019308BD2C020300E4
:1046BC0008B5024B1B681B6A019308BD2C02030052
:1046CC0008B5024B1B685B6A019308BD2C02030002
:1046DC0008B5024B1B685B68019308BD1802030008
:1046EC0008B5024B1B68DB68019308BD1802030078
:1046FC0008B5024B1B685B69019308BD18020300E7
:10470C0008B5024B1B685B6C019308BD48020300A3
:10471C0008B5024B1B685B69019308BD640203007A
:10472C0008B5024B1B681B68019308BD3C020300D3
:10473C0008B5024B1B68DB68019308BD3C02030003
:10474C0008B5024B1B681B69019308BD3C020300B2
:10475C0008B5024B1B685B69019308BD3C02030062
:10476C0008B5024B1B689B69019308BD3C02030012
:10477C0008B5024B1B68DB69019308BD3C020300C2
:10478C0008B5024B1B681B6A019308BD3C02030071
:10479C0008B5024B1B689B6A019308BD3C020300E1
:1047AC0008B5024B1B681B6A019308BD2802030065
:1047BC0008B5024B1B685B6A019308BD2802030015
:1047CC0008B5024B1B689B6A019308BD28020300C5
:1047DC0008B5024B1B68DB6A019308BD2802030075
:1047EC0008B5024B1B681B6B019308BD2802030024
:1047FC0008B5024B1B685B6B019308BD28020300D4
:10480C0008B5024B1B681B6C019308BD2802030002
:10481C0008B5024B1B68DB69019308BD300203002D
:10482C0008B5024B1B681B6A019308BD30020300DC
:10483C0008B5024B1B681B68019308BD4C020300B2
:10484C0008B5024B1B681B69019308BD4C020300A1
:10485C0008B5024B1B685B69019308BD4C02030051
:10486C0008B5024B1B689B69019308BD4C02030001
:10487C0008B5024B1B68DB69019308BD4C020300B1
:10488C0008B5024B1B681B6A019308BD4C02030060
:10489C0008B5024B1B685B6B019308BD60020300FB
:1048AC0008B5024B1B685B68019308BD200203002E
:1048BC0008B5024B1B685B69019308BD200203001D
:1048CC0008B5024B1B68DB6C019308BD200203008A
:1048DC0008B5024B1B685B6D019308BD20020300F9
:1048EC0008B5034B1B68D3F88830019308BD000052
:1048FC002002030008B5034B1B68D3F894300193D6
:10490C0008BD00002002030008B5024B1B685B6861
:10491C00019308BD4002030008B5024B1B689B685D
:10492C00019308BD4002030008B5024B1B68DB680D
:10493C00019308BD4002030008B5024B1B681B69BC
:10494C00019308BD4002030008B5024B1B685B696C
:10495C00019308BD4002030008B5024B1B689B691C
:10496C00019308BD4002030008B5024B1B68DB69CC
:10497C00019308BD4002030008B5024B1B681B6A7B
:10498C00019308BD4002030008B5024B1B681B6B6A
:10499C00019308BD4002030008B5024B1B685B6B1A
:1049AC00019308BD4002030008B5024B1B681B6C49
:1049BC00019308BD4002030008B5024B1B685B6CF9
:1049CC00019308BD4002030008B5024B1B685B69EC
:1049DC00019308BD4402030008B5024B1B681B6A17
:1049EC00019308BD4402030008B5024B1B68DB6B46
:1049FC00019308BD4402030008B5024B1B681B68F9
:104A0C00019308BD1C02030008B5024B1B685B68D0
:104A1C00019308BD1C02030008B5024B1B689B6880
:104A2C00019308BD1C02030008B5024B1B68DB6A2E
:104A3C00019308BD1C02030008B5024B1B681B6BDD
:104A4C00019308BD1C02030008B5024B1B685B6C8C
:104A5C00019308BD1C020300002240681146FFF7B9
:104A6C008BBF002240681146FFF796BF40680022BA
:104A7C00FFF78ABF4068002281F00101FFF774BF85
:104A8C00002340681A461946FFF766BF00234068AA
:104A9C001A461946FFF758BF002240681146FFF727
:104AAC004BBF002240681146FFF736BF406800221A
:104ABC000221FFF739BF002340681A46FFF724BFD5
:104ACC00024B03225A60024A1A607047A8E5032081
:104ADC00A8690D0010B5044608462170FFF798FE32
:104AEC0000236360204610BD054B02221A60054B63
:104AFC00054A9A600020186098809871FFF7D0BE24
:104B0C00BCE50320B0E503200000FFFF10B5044610
:104B1C0001F09BFE013823182046834206D9027807
:104B2C00197800F8011B03F80129F6E710BD70B5E0
:104B3C000C46911E2229054622D820466DB1B5FBA4
:104B4C00F2F602FB1655E9B2092D94BF30315731FC
:104B5C00C9B200F8011B3546F0E702462344302168
:104B6C00934202D902F8011BFAE71A1A834238BFA2
:104B7C000022002383542046FFF7C8FF204670BD57
:104B8C000020FCE72DE9F04757EC106B80460C46F3
:104B9C0010EE100A00220023394601F017FC28B150
:104BAC0007F100431F462D2304F8013B00234FF06F
:104BBC0001090A22D9B2884503D902FB09F901334C
:104BCC00F8E7484601F026F932463B4601F08CF9ED
:104BDC0006460F4601F05AFC05468A4601F04EF98E
:104BEC0002460B463046394600F0C6FF134B0022F6
:104BFC0001F000FC10B101354AF1000A4A46284682
:104C0C00D317514601F02AFC0123154621460A22EE
:104C1C00FFF78DFFB8F1000F0DD0204601F015FE07
:104C2C002E23211823540A22434628460131BDE87D
:104C3C00F047FFF77CBFBDE8F08700BF0000E03F06
:104C4C0010B504460068FFF7DFFE204610BD10B516
:104C5C000446006808B1FFF7D7FE0023C4E901330E
:104C6C00236010BD38B504460D4600680131FFF7CE
:104C7C00D3FE10B1C4E90005012038BD10B503689E
:104C8C00044623B143688B4201D3012010BD20465A
:104C9C00FFF7E8FF0028F9D0A368002BF5D12268B4
:104CAC001370F2E737B50D46114601920446FFF733
:104CBC00E5FF019A28B92046FFF7C9FF204603B04B
:104CCC0030BDA2602946206801F068FD2268A36807
:104CDC000021D154F2E713B5044659B108460191AD
:104CEC0001F0B3FD019902462046FFF7DBFF204699
:104CFC0002B010BDFFF7ABFFF9E730B50446002357
:104D0C008BB0C4E90033A360237310EE100ACDB24C
:104D1C0001F092F841EC100B01A92846FFF732FF85
:104D2C0001A92046FFF7D7FF20460BB030BD0B681A
:104D3C00036013B15A6801325A607047024800236D
:104D4C000360FFF7DDBC00BFC0E50320F8B50646E5
:104D5C000D468F180024BD420CD0336815F8011B8A
:104D6C009B6830469847031E01DB1C44F3E7002C7C
:104D7C0008BF1C462046F8BD13B50446084659B179
:104D8C00019101F062FD23680199DB68024620461F
:104D9C0002B0BDE81040184702B010BD03689B6814
:104DAC00184738B50D210546FFF7F8FF0A210446D0
:104DBC002846FFF7F3FF204438BD38B50546FFF70A
:104DCC00DBFF04462846FFF7ECFF204438BD30B526
:104DDC008BB000238DF82430012A98BF0A2209AC2D
:104DEC000D46B1FBF2F101FB125303F0FF03092B4B
:104DFC0094BF30333733DBB2AA4204F8013DEFD90C
:104E0C002146FFF7B9FF0BB030BD0000014B024A41
:104E1C001A607047C4E50320DC690D00024B1A6868
:104E2C00024B1A60704700BF1CE50320C8E5032045
:104E3C000021FFF73DBD10B58368044613B1032272
:104E4C0001469847204610BD13B50B460246D0E9E3
:104E5C0000016C4684E8030093E8030082E8030039
:104E6C0094E8030083E8030002B010BD014B00225C
:104E7C009A607047CCE50320014B1860704700BF67
:104E8C0020E5032008B50B4B43B100F0F9FB036898
:104E9C001B699847002801DDAFF30080064B43B136
:104EAC0000F06CFC03681B699847002801DDAFF328
:104EBC00008008BD000000000000000008B5FFF7EE
:104ECC00E1FFFFF715FC014B186008BD38E7032024
:104EDC000548064A064908B5121A01F05FFC054B55
:104EEC00054A1A6008BD00BF00F4032004F4032037
:104EFC00686B0D0000F403201E1C279A07B50023D5
:104F0C0000931A466FF07701FFF7F4FC03B05DF8DD
:104F1C0004FB000007B543880A2B08D0502B0BD19B
:104F2C00094B1B684BB103B05DF804EB1847FFF756
:104F3C00E5FF03B05DF804FB002300931A466FF005
:104F4C007701FFF7D7FCF4E7E0E5032010B5124832
:104F5C000021FFF779FD114B1A68114B9A42114B46
:104F6C000CBF012200221A7001D0FFF7B1FFFFF72E
:104F7C00AFFB044601F028FC0B4B13B12046AFF3FA
:104F8C00008000210848FFF72FFDBDE810400748BE
:104F9C000021FFF7A5BC00BF854E0D0000F40320D7
:104FAC001E1C279ADCE5032000000000214F0D0099
:104FBC0070470020704710B51021044600F0D0FD5A
:104FCC00204610BD08B5FFF7F6FF08BD30B500222E
:104FDC004FF69C74026084808D888C800C68858070
:104FEC0004600A6030BD10B504460068FFF70CFD84
:104FFC00204610BD38B5C468F4B12378022B03D118
:10500C0004F10C00FFF7EFFF656835B12846FFF798
:10501C0012FF1021284600F0A3FDA56835B12846E3
:10502C00FFF709FF1021284600F09AFD20461421B5
:10503C00BDE8384000F094BD38BD73B50E4604464B
:10504C0056F8043B00930D4601A83146FFF76FFE5E
:10505C00019A009B6260236001A8002301930093D6
:10506C00FFF736F83046FFF733F82846082100F0F2
:10507C0077FD204602B070BD826810B50AB900F009
:10508C0073FDBDE81040C368184708B5006800F10F
:10509C001001FFF7F1FF08BD826810B50AB900F0E6
:1050AC0063FDBDE81040C368184708B5006800F1FF
:1050BC001001FFF7F1FF08BD38B50023044603606B
:1050CC0010200D46FEF7DFFF28B10123C0E90133A4
:1050DC00024B0360C5602060204638BD046A0D0099
:1050EC0038B5002383608B6804460D462BB1022231
:1050FC009847EB68E360AB68A360204638BD0000BE
:10510C00F0B589B004686846FFF760FF4FF0020302
:10511C00D4E84F2F002A03D1C4E8413F0029F7D12E
:10512C0025D104F10C0569462846FFF74FFFBFF364
:10513C005B8F01236370002004F10803BFF35B8FC6
:10514C0053E8006F43E80002002AF9D1BFF35B8FEC
:10515C006EB1FFF7B5FB78B129463046FFF78CFFEF
:10516C003046FFF768FE1021304600F0F9FC684627
:10517C00FFF739FF09B0F0BD314602A8FFF7B0FFC9
:10518C00E068B4F9105008B101F042FB0690102011
:10519C00ADF81C50FEF777FF0546E8B10027876095
:1051AC001820FEF770FF044688B10146876002A8FC
:1051BC00FFF74AFE049BA268A360059B049206A914
:1051CC00E268E36004F110000592FFF7FFFE084B64
:1051DC00EB60084B2C60AB6006A8FFF704FF02A83D
:1051EC00FFF729FE002229460348FFF771FBB7E7BA
:1051FC0097500D002D530D00D5570D002DE9F0479C
:10520C008AB005469DF848900C4617469846FFF71D
:10521C00DBFB07AE824638BB4FF62E73059005A913
:10522C003046ADF81830FFF7D1FE1420FEF72BFFF7
:10523C00044648B1022303700123C0E901AA43705C
:10524C0031460C30FFF7C2FE2846214640F8044B8D
:10525C00FFF732FF3046FFF7C6FE05A8FFF7C3FE87
:10526C0028460AB0BDE8F0870C234FF0000A142042
:10527C00CDE908AA0793FEF706FF014628B1C0E95D
:10528C0001AA80F800A080F801A004A80391FFF700
:10529C0013FF224B08930820FEF7F5FE824628B137
:1052AC00039B40F8043B04A9FFF741FD00965FFA0D
:1052BC0089F3424639462046CDF824A0FFF78CFBF3
:1052CC00B8B9039B5B7803F0FF0293B94FF69C735C
:1052DC0005A903A80592ADF81830FFF711FF05A832
:1052EC00FFF781FE05A80999FFF7A7FE06A8FEF7B0
:1052FC00EFFE039B059304A906A8FFF718FD059B79
:10530C00069A2B606A60002306A806930593FEF7A5
:10531C00DFFE04A8FEF7DCFEA2E700BFF1530D0090
:10532C00022AF8B5054607D0032A18D0012A01D164
:10533C000B6803600020F8BD18200E68FEF7A3FE72
:10534C00044650B13146FFF7CBFE3069B6F9147004
:10535C0008B101F05DFA2061A7822C60EAE70468CD
:10536C00002CE7D004F11000FFF73DFE2046FFF7BC
:10537C0062FD1821204600F0F3FBDBE738B5002373
:10538C0083608B6804460D462BB102229847EB686C
:10539C00E360AB68A360204638BD022A70B50446B2
:1053AC0007D0032A12D0012A01D10B680360002018
:1053BC0070BD14200E68FEF766FE054620B131461E
:1053CC00FFF7DCFF337C2B742560F0E70468002CBE
:1053DC00EDD02046FFF72FFD1421204600F0C0FB36
:1053EC00E5E70000F0B589B004460D4601A811466A
:1053FC00FFF723FEA4B124B21DB1284601F008FA30
:10540C00054601A803A90395ADF81040FFF778FEF7
:10541C0003A8FFF7E8FD02A8FEF75AFE09B0F0BD9D
:10542C00019D0123D5E84F2F002A03D1C5E8413F48
:10543C000029F7D1EFD12B73BFF35B8F6B702B1D52
:10544C00BFF35B8F53E8006F43E80042002AF9D1A9
:10545C00BFF35B8F002EDED02046FFF731FA0746F4
:10546C0060B105F10C013046FFF716FE3046FFF730
:10547C00E2FC1021304600F073FBCCE7314603A868
:10548C00FFF77CFF2B7B8DF81C301020FEF7FBFD0B
:10549C000546D0B187601420FEF7F5FD044678B1BF
:1054AC008760014603A8FFF7CFFC059BA268A360A9
:1054BC00069B0592E268E3609DF81C30069223740B
:1054CC00064BEB60064B2C60AB6003A8FFF7B3FCFC
:1054DC00002229460348FFF7FBF9C7E7B7500D0038
:1054EC00A7530D00D5570D00704710B51821044671
:1054FC0000F036FB204610BDF0B5037D062B8DB0B9
:10550C000E4600F104074FF0000412D000F108051C
:10551C0015F8011D0A223046FFF759FCAF4204442E
:10552C0019D0002CF4D02E213046FFF737FC044460
:10553C00EEE72F236A4639460A208DF80040FFF724
:10554C00E7F8684601F081F933680246DB68694682
:10555C0030469847044620460DB0F0BD10B5054BBB
:10556C000446112240F8043B002101F025F92046A5
:10557C0010BD00BF206A0D000346074A10B543F862
:10558C00042B01F1100251F8044B43F8044B9142E7
:10559C00F9D10A781A7010BD206A0D0010B59DF86B
:1055AC00084044EA032343EA024242EA016104232D
:1055BC004160037510BD13B5CB7800938B784A7896
:1055CC000978FFF7EBFF02B010BD417470477047CC
:1055DC00704708B50021007CFFF742F940EAE07003
:1055EC0008BD08B50121007CFFF73AF940EAE070EC
:1055FC0008BD08B5007CFFF72BF920EAE07008BD68
:10560C0008B5007CFFF71CF920EAE07008BD13B563
:10561C000446007C0191FFF71BF90028019901DC7D
:10562C00607C20B1207CFFF723F920EAE07002B007
:10563C0010BD007CFFF724B910B51421044600F00E
:10564C008FFA204610BD000010B54FF47A73044653
:10565C0008460021C4E90113044B23600123207484
:10566C0063741146FFF7E4F8204610BD346A0D0050
:10567C0010B514220446002101F09EF8204610BDFE
:10568C0010B50F4C88B003A8FFF7F2FF2178BFF3D9
:10569C005B8F11F001010FD120460191FEF7F9FC4F
:1056AC00019948B103AA0748FFF7CEFF2046FEF741
:1056BC00F5FC054801F06CF8024808B010BD00BFBD
:1056CC00E4E50320E8E50320DB550D00FEF7F8BF09
:1056DC00FEF7EEBF704741747047704708B5007C09
:1056EC00FFF756F820EAE07008BD08B5007CFFF71C
:1056FC0027F820EAE07008BD08B5007CFFF730F809
:10570C0040EAE07008BD08B5007CFFF721F840EADC
:10571C00E07008BD007CFFF72BB837B5457C04461C
:10572C002DB1207C03B0BDE83040FFF701B8007C00
:10573C000191FFF72DF800280199F2DC284603B0FF
:10574C0030BD10B51421044600F00AFA204610BDF5
:10575C0010B54FF0000C0446084611464FF47A720F
:10576C00C4E901C2044A22600122207462741A4600
:10577C00FEF7D6FF204610BD646A0D0013B50D4C24
:10578C002178BFF35B8F11F0010110D120460191FC
:10579C00FEF77FFC019950B1074B084A0848FFF708
:1057AC00D7FF2046FEF77AFC064800F0F1FF0448CC
:1057BC0002B010BDFCE5032084E6032000E60320C4
:1057CC0008E70320E7560D0010B5836804460BB9B3
:1057DC0000F0CAF9C3689847A3681BB1032221469D
:1057EC002046984720461021BDE8104000F0B8B97B
:1057FC007047F8B5064615460C468F18BC4206D0C5
:10580C00336814F8011B9B6830469847F6E7284626
:10581C00F8BD007C0022FEF7C3BF007C0021FEF720
:10582C00C7BF007C0021FEF7CBBF007C0021FEF738
:10583C00CFBF007C0021FEF7D3BF10B51421044666
:10584C0000F08EF9204610BD10B54FF47A73044663
:10585C0008460021C4E90113034B23602074114650
:10586C00FEF7CEFF204610BD946A0D000022406862
:10587C001146FFF761B8002240681146FFF77CB86B
:10588C00002240681146FFF787B840680022FFF7F6
:10589C007BB84068002281F00101FFF765B8002356
:1058AC0040681A461946FFF757B8002340681A4655
:1058BC001946FFF749B8002240681146FFF72CB88B
:1058CC00406800220221FFF72FB8002340681A46D7
:1058DC00FFF71AB8024B04225A60024A1A6070474A
:1058EC001CE70320BC6A0D00002340681A46FFF732
:1058FC000BB8406800220221FFF716B8002240685E
:10590C001146FFF709B8002240681146FFF714B89A
:10591C00002340681A461946FFF716B80023406862
:10592C001A461946FFF718B840680021FFF73CB833
:10593C0040680021FFF740B84068002281F0010167
:10594C00FFF712B840680022FFF71EB8002240682B
:10595C001146FFF721B8002240681146FFF70CB83A
:10596C002DE9F043002495B016460D460746FFF787
:10597C00F5FD214618220EA8009400F01DFF4023CF
:10598C00CDE90C3421466B460CAA3046FEF778FE66
:10599C000446002846D1024601216868FEF7CCFF78
:1059AC000221804622466868FEF7C6FF009E8146AB
:1059BC002146002E36D0002934D17368022B03D037
:1059CC000A2B0BD0F669F4E7B8F1000F04D071691B
:1059DC0038460431FFF7EFFD4146F3E7B9F1000F0C
:1059EC0001D14946EEE77469102201A800F0E4FEEB
:1059FC0006238DF8143001AD04F10803183418682F
:105A0C0059682A4603C20833A3421546F7D101A9A7
:105A1C0006A807ADFFF7B0FD0FCD3C1D0FC42B68DA
:105A2C002370DEE70098FEF723FE384615B0BDE87C
:105A3C00F0830000024B034A1A6000225A60704740
:105A4C0024E70320F86A0D00232813B502D900209F
:105A5C0002B010BDA0F10B03022B1AD8174C217801
:105A6C00BFF35B8F11F001010BD120460191FEF7C2
:105A7C0010FB019928B11248FFF72CF82046FEF7CD
:105A8C000DFB0F4B1878FEF7CBFE0028DFD1012061
:105A9C00DEE7012809D800F03FF80021007CFEF772
:105AAC00A7FE80F00100C0B2D2E709380128EED879
:105ABC00FFF764FE007CFEF763FEF2E72CE70320A1
:105ACC0030E70320232838B504460D460AD8FF29B1
:105ADC0008D0FFF7B9FF28B129462046BDE8384069
:105AEC00FEF7DEBD38BD704738B500232025438056
:105AFC00142304460380856005610649284600F09E
:105B0C0031F804496060284600F02CF8E06020462B
:105B1C0038BD00BF2C6B0D0030B50E4D2978BFF38E
:105B2C005B8F11F0010487B011D12846FEF7B1FA52
:105B3C0068B101A8FFF7D8FF01AA21460648FFF774
:105B4C0083FE2846FEF7AAFA044800F021FE02481C
:105B5C0007B030BD3CE7032040E70320F35A0D00AB
:105B6C00FEF795BAFEF791BA08B5FEF75DFF000097
:105B7C0081F0004102E000BF83F0004330B54FEAF2
:105B8C0041044FEA430594EA050F08BF90EA020F5F
:105B9C001FBF54EA000C55EA020C7FEA645C7FEAF2
:105BAC00655C00F0E2804FEA5454D4EB5555B8BF15
:105BBC006D420CDD2C4480EA020281EA030382EA86
:105BCC00000083EA010180EA020281EA0303362D18
:105BDC0088BF30BD11F0004F4FEA01314FF4801CEB
:105BEC004CEA113102D0404261EB410113F0004FFD
:105BFC004FEA03334CEA133302D0524263EB4303B4
:105C0C0094EA050F00F0A780A4F10104D5F1200E51
:105C1C000DDB02FA0EFC22FA05F2801841F10001AC
:105C2C0003FA0EF2801843FA05F359410EE0A5F180
:105C3C0020050EF1200E012A03FA0EFC28BF4CF0B1
:105C4C00020C43FA05F3C01851EBE37101F0004567
:105C5C0007D54FF0000EDCF1000C7EEB00006EEB74
:105C6C000101B1F5801F1BD3B1F5001F0CD34908FE
:105C7C005FEA30004FEA3C0C04F101044FEA445255
:105C8C0012F5800F80F09A80BCF1004F08BF5FEADC
:105C9C00500C50F1000041EB045141EA050130BDBC
:105CAC005FEA4C0C404141EB0101013C28BFB1F5CE
:105CBC00801FE9D291F0000F04BF01460020B1FA19
:105CCC0081F308BF2033A3F10B03B3F120020CDAEC
:105CDC000C3208DD02F1140CC2F10C0201FA0CF0CA
:105CEC0021FA02F10CE002F11402D8BFC2F1200C2F
:105CFC0001FA02F120FA0CFCDCBF41EA0C019040E5
:105D0C00E41AA2BF01EB0451294330BD6FEA04042D
:105D1C001F3C1CDA0C340EDC04F11404C4F1200218
:105D2C0020FA04F001FA02F340EA030021FA04F32A
:105D3C0045EA030130BDC4F10C04C4F1200220FA81
:105D4C0002F001FA04F340EA0300294630BD21FABF
:105D5C0004F0294630BD94F0000F83F4801306BF85
:105D6C0081F480110134013D4EE77FEA645C18BF79
:105D7C007FEA655C29D094EA050F08BF90EA020F10
:105D8C0005D054EA000C04BF1946104630BD91EA08
:105D9C00030F1EBF0021002030BD5FEA545C05D10B
:105DAC004000494128BF41F0004130BD14F580044A
:105DBC003CBF01F5801130BD01F0004545F0FE41BE
:105DCC0041F470014FF0000030BD7FEA645C1ABFF3
:105DDC00194610467FEA655C1CBF0B46024650EA2A
:105DEC00013406BF52EA033591EA030F41F4002156
:105DFC0030BD00BF90F0000F04BF0021704730B5DC
:105E0C004FF4806404F132044FF000054FF00001B0
:105E1C0050E700BF90F0000F04BF0021704730B571
:105E2C004FF4806404F1320410F0004548BF404246
:105E3C004FF000013EE700BF42004FEAE2014FEA9B
:105E4C0031014FEA02701FBF12F07F4393F07F4F76
:105E5C0081F06051704732F07F4208BF704793F079
:105E6C007F4F04BF41F40021704730B54FF460748C
:105E7C0001F0004521F000411CE700BF50EA01028F
:105E8C0008BF704730B54FF000050AE050EA010238
:105E9C0008BF704730B511F0004502D5404261EBA8
:105EAC0041014FF4806404F132045FEA915C3FF4E9
:105EBC00D8AE4FF003025FEADC0C18BF03325FEA86
:105ECC00DC0C18BF033202EBDC02C2F1200300FA37
:105EDC0003FC20FA02F001FA03FE40EA0E0021FA5C
:105EEC0002F11444BDE600BF70B54FF0FF0C4CF44A
:105EFC00E06C1CEA11541DBF1CEA135594EA0C0FFC
:105F0C0095EA0C0F00F0DEF82C4481EA030621EA36
:105F1C004C5123EA4C5350EA013518BF52EA033571
:105F2C0041F4801143F4801338D0A0FB02CE4FF023
:105F3C000005E1FB02E506F00042E0FB03E54FF053
:105F4C000006E1FB03569CF0000F18BF4EF0010E4B
:105F5C00A4F1FF04B6F5007F64F5407404D25FEA47
:105F6C004E0E6D4146EB060642EAC62141EA5551FA
:105F7C004FEAC52040EA5E504FEACE2EB4F1FD0C3C
:105F8C0088BFBCF5E06F1ED8BEF1004F08BF5FEABA
:105F9C00500E50F1000041EB045170BD06F000466C
:105FAC0046EA010140EA020081EA0301B4EB5C0419
:105FBC00C2BFD4EB0C0541EA045170BD41F4801111
:105FCC004FF0000E013C00F3AB8014F1360FDEBF36
:105FDC00002001F0004170BDC4F10004203C35DA12
:105FEC000C341BDC04F11404C4F1200500FA05F395
:105FFC0020FA04F001FA05F240EA020001F0004236
:10600C0021F0004110EBD37021FA04F642EB0601AB
:10601C005EEA430E08BF20EAD37070BDC4F10C04D5
:10602C00C4F1200500FA04F320FA05F001FA04F299
:10603C0040EA020001F0004110EBD37041F1000185
:10604C005EEA430E08BF20EAD37070BDC4F1200590
:10605C0000FA05F24EEA020E20FA04F301FA05F2F8
:10606C0043EA020321FA04F001F0004121FA04F2A0
:10607C0020EA020000EBD3705EEA430E08BF20EA70
:10608C00D37070BD94F0000F0FD101F000464000AA
:10609C0041EB010111F4801F08BF013CF7D041EA2C
:1060AC00060195F0000F18BF704703F00046520030
:1060BC0043EB030313F4801F08BF013DF7D043EA01
:1060CC000603704794EA0C0F0CEA135518BF95EAB7
:1060DC000C0F0CD050EA410618BF52EA4306D1D13E
:1060EC0081EA030101F000414FF0000070BD50EA5D
:1060FC00410606BF1046194652EA430619D094EAE7
:10610C000C0F02D150EA013613D195EA0C0F05D1D0
:10611C0052EA03361CBF104619460AD181EA030124
:10612C0001F0004141F0FE4141F470014FF00000DC
:10613C0070BD41F0FE4141F4780170BD70B54FF077
:10614C00FF0C4CF4E06C1CEA11541DBF1CEA1355F7
:10615C0094EA0C0F95EA0C0F00F0A7F8A4EB0504D9
:10616C0081EA030E52EA03354FEA013100F08880D0
:10617C004FEA03334FF0805545EA131343EA126399
:10618C004FEA022245EA111545EA10654FEA00264E
:10619C000EF000419D4208BF964244F1FD0404F507
:1061AC00407402D25B084FEA3202B61A65EB030563
:1061BC005B084FEA32024FF480104FF4002CB6EB20
:1061CC00020E75EB030E22BFB61A754640EA0C00A0
:1061DC005B084FEA3202B6EB020E75EB030E22BFE0
:1061EC00B61A754640EA5C005B084FEA3202B6EB21
:1061FC00020E75EB030E22BFB61A754640EA9C00E0
:10620C005B084FEA3202B6EB020E75EB030E22BFAF
:10621C00B61A754640EADC0055EA060E18D04FEA6D
:10622C00051545EA16754FEA06164FEAC30343EA0D
:10623C0052734FEAC2025FEA1C1CC0D111F4801FDA
:10624C000BD141EA00014FF000004FF0004CB6E7D3
:10625C0011F4801F04BF01430020B4F1FD0C88BF72
:10626C00BCF5E06F3FF6AFAEB5EB030C04BFB6EB7D
:10627C00020C5FEA500C50F1000041EB045170BD70
:10628C000EF0004E4EEA113114EB5C04C2BFD4EB9D
:10629C000C0541EA045170BD41F480114FF0000E21
:1062AC00013C90E645EA060E8DE60CEA135594EA9D
:1062BC000C0F08BF95EA0C0F3FF43BAF94EA0C0FA0
:1062CC000AD150EA01347FF434AF95EA0C0F7FF415
:1062DC0025AF104619462CE795EA0C0F06D152EA69
:1062EC0003353FF4FDAE1046194622E750EA41064D
:1062FC0018BF52EA43067FF4C5AE50EA41047FF45E
:10630C000DAF52EA43057FF4EBAE12E74FF0FF3CC2
:10631C0006E000BF4FF0010C02E000BF4FF0010C93
:10632C004DF804CD4FEA410C7FEA6C5C4FEA430C0C
:10633C0018BF7FEA6C5C1BD001B050EA410C0CBF5B
:10634C0052EA430C91EA030F02BF90EA020F0020BD
:10635C00704710F1000F91EA030F58BF994208BF24
:10636C0090422CBFD8176FEAE37040F001007047E1
:10637C004FEA410C7FEA6C5C02D150EA013C07D138
:10638C004FEA430C7FEA6C5CD6D152EA033CD3D083
:10639C005DF8040B704700BF8446104662468C467D
:1063AC001946634600E000BF01B5FFF7B7FF0028B0
:1063BC0048BF10F1000F01BD4DF808EDFFF7F4FFD9
:1063CC000CBF012000205DF808FB00BF4DF808ED64
:1063DC00FFF7EAFF34BF012000205DF808FB00BF87
:1063EC004DF808EDFFF7E0FF94BF012000205DF8A9
:1063FC0008FB00BF4DF808EDFFF7CEFF94BF01205E
:10640C0000205DF808FB00BF4DF808EDFFF7C4FF56
:10641C0034BF012000205DF808FB00BF4A0011D2F8
:10642C0012F5001211D20DD56FF47873B3EB6252E2
:10643C000ED44FEAC12343F0004343EA505323FAEE
:10644C0002F070474FF00000704750EA013002D163
:10645C004FF0FF3070474FF00000704753B94AB906
:10646C00002908BF00281CBF4FF0FF314FF0FF3050
:10647C0000F08CB9ADF1080C6DE904CE00F024F8F5
:10648C00DDF804E0DDE9022304B07047D0B50C4B15
:10649C00002206460F46FFF727FDFFF7BFFF044615
:1064AC00FFF7A8FC074B0022FFF71EFD02460B4628
:1064BC0030463946FFF760FBFFF7B0FF2146D0BDF1
:1064CC000000F03D0000F0412DE9F047089D044626
:1064DC008C46002B40F083808A42174647D9B2FA8B
:1064EC0082F242B1C2F1200024FA00F091409740B0
:1064FC0040EA010C94404FEA1748230CBCFBF8F619
:10650C001FFA87FE08FB16C143EA014306FB0EF196
:10651C00994209D9FB1806F1FF3080F01981994294
:10652C0040F21681023E3B445B1AA4B2B3FBF8F076
:10653C0008FB103344EA034400FB0EFEA64509D9C0
:10654C003C1900F1FF3380F00581A64540F2028131
:10655C0002383C4440EA0640A4EB0E0400261DB170
:10656C00D4400023C5E900433146BDE8F08702B9A9
:10657C00FFDEB2FA82F2002A50D1CB1B4FEA174E43
:10658C001FFA87F80126B3FBFEFC210C0EFB1C3313
:10659C0041EA034108FB0CF38B4207D979180CF143
:1065AC00FF3002D28B4200F2E9808446C91AA3B2B2
:1065BC00B1FBFEF00EFB101143EA014408FB00F89E
:1065CC00A04507D93C1900F1FF3302D2A04500F2D7
:1065DC00D9801846A4EB080440EA0C40BFE78B4274
:1065EC0009D9002D00F0B1800026C5E90001304624
:1065FC003146BDE8F087B3FA83F6002E4AD18B42C0
:10660C0002D3824200F2B880841A61EB03010120AC
:10661C008C46002DA8D0C5E9004CA5E7C2F120039B
:10662C0020FA03F6974001FA02F04FEA174ED940D0
:10663C003043030CB1FBFEF61FFA87F80EFB161164
:10664C0043EA014306FB08F1994204FA02F409D922
:10665C00FB1806F1FF3C80F08D80994240F28A8055
:10666C00023E3B445B1A81B2B3FBFEF00EFB1033CF
:10667C0041EA034100FB08F38B4207D9791800F17A
:10668C00FF3C73D28B4271D902383944CB1A40EAA1
:10669C00064678E7C6F1200C03FA06F422FA0CF34E
:1066AC001C4320FA0CF701FA06F34FEA144E21FAB8
:1066BC000CF11F433B0CB1FBFEF91FFA84F80EFBE7
:1066CC00191143EA014109FB08FA8A4502FA06F25C
:1066DC0000FA06F308D9611809F1FF3048D28A454F
:1066EC0046D9A9F102092144A1EB0A01BFB2B1FBC1
:1066FC00FEF00EFB101147EA014700FB08F8B84505
:10670C0007D9E71900F1FF312ED2B8452CD9023840
:10671C00274440EA0940A7EB0807A0FB02894F4534
:10672C00C64649461AD317D05DB1B3EB0E0267EBE0
:10673C00010707FA0CFCF2404CEA0202F740C5E9EB
:10674C00002700263146BDE8F0872E4628460BE789
:10675C000646E9E61846FDE64345E5D2B8EB020EDF
:10676C0069EB04010138DFE70846D2E760468DE7A4
:10677C008146B9E7664675E730464AE7ACF1020C4C
:10678C00394413E702383C4424E700BF704700BF8C
:10679C00002301461A46184600F060B80A4491429C
:1067AC0000F1FF3300D1704710B511F8014B03F81D
:1067BC00014F9142F9D110BD02440346934200D1DE
:1067CC00704703F8011BF9E738B50D4B1D68AB6B2F
:1067DC0004467BB91820FEF70FF90A4A0A4BA86346
:1067EC00C0E90023094B83600B2383810122002322
:1067FC00C0E90423AB6B00221C615A6138BD00BF99
:10680C0020E503200E33CDAB34126DE6ECDE050033
:10681C00024B0146186800F003B800BF20E50320C6
:10682C0037B5044608460D4600F00FF8421C1146D9
:10683C0020460192FEF700F9044618B1019A294648
:10684C00FFF7ACFF204603B030BD034613F8012B15
:10685C00002AFBD1181A0138704700002DE9F843C3
:10686C00DFF8B8800646D8F800001F460D46914662
:10687C0000F056F8254B1C6834B9254C1C60254B90
:10688C0013B11B68C4F8883063681F2B07DDD8F878
:10689C00000000F047F84FF0FF30BDE8F8834EB32E
:1068AC00D4F8880088B91C4B23B9D8F8000000F044
:1068BC0038F8F0E74FF48470FEF79EF80028F4D017
:1068CC000023C0E94033C4F88800636840F8239083
:1068DC0001229A4000EB8301D0F800311343022EC1
:1068EC00C0F80031C1F8807002BFD0F804311A43EF
:1068FC00C0F804216368D8F800005A1C02336260A7
:10690C0044F8235000F00EF80020C6E7E0E703201F
:10691C0054E7032000000000054A0D0084E5032025
:10692C0070477047704700001D400D0059400D0026
:10693C0081400D0085400D0000000000444854319A
:10694C003120426567696E212121004661696C65C1
:10695C006420746F20726561642066726F6D2044D0
:10696C00485431312073656E736F72210048756D18
:10697C00204572726F720054656D70204572726F93
:10698C00720048756D69646974793A0054656D706C
:10699C003A0000000000000000000000C34A0D0097
:1069AC00B94A0D00AF4A0D00A54A0D00994A0D00D9
:1069BC008D4A0D0035590D003D590D00814A0D00D1
:1069CC00794A0D006F4A0D00654A0D006D590D0096
:1069DC006170700025592D256D2D25645425483A7C
:1069EC00254D3A2553257A0061736374696D6500F2
:1069FC000000000000000000BD4F0D00C34F0D0053
:106A0C0001500D00D14F0D00BF4F0D0000000000D4
:106A1C000000000005550D00F5540D00F7540D0055
:106A2C000000000000000000DD550D0045560D0073
:106A3C001B560D00594D0D000D560D00DF550D0068
:106A4C00EF550D003F560D00FF550D00D7550D00AD
:106A5C000000000000000000E1560D004F570D0033
:106A6C0027570D00594D0D00F7560D0013570D000B
:106A7C0005570D0021570D00E3560D00E9560D008A
:106A8C000000000000000000FD570D0047580D00ED
:106A9C001F580D00FF570D0027580D002F580D00E3
:106AAC0037580D003F580D0000000000000000009A
:106ABC00D7580D00CD580D00C3580D0079580D0056
:106ACC00B7580D00AB580D0035590D003D590D0050
:106ADC009F580D0097580D008D580D0083580D00D0
:106AEC006D590D000000000000000000F5580D006D
:106AFC00FF580D0009590D0013590D001D590D00BB
:106B0C0029590D0035590D003D590D0045590D0001
:106B1C0051590D0059590D0063590D006D590D0057
:106B2C00000000001D420D00CD4A0D00F54A0D007D
:106B3C00494D0D00194E0D00294E0D00794E0D00DA
:106B4C00E1580D00415A0D0000000000000000004B
:046B5C000000000035
:086B600074F9FF7F0100000041
:046B68000000000029
:106B6C0002000000F4690D0024E503200000000081
:106B7C000000000000000000000000000000000009
:106B8C0000000000000000000000000000000000F9
:106B9C0000000000000000000000000000000000E9
:106BAC0000000000000000000000000000000000D9
:106BBC0000000000000000000000000000000000C9
:106BCC00000000000000000000000000E5E70320CA
:106BDC00FFFFFFFF00000102030405060708090A76
:106BEC000B0C0D0E0F101112131415161718191A71
:086BFC001B1C1D1E1F202800B8
:046C04007856341278
:04000003D000401CCD
:00000001FF
